:020000040800F2
:1000000060AF0220F90300082532000831310008F2
:10001000C1310008C52F0008F14C000800000000A5
:100020000000000000000000000000005D34000837
:1000300059300008000000005132000885340008E3
:100040001304000813040008130400081304000834
:100050001304000813040008130400081304000824
:10006000AD3000081304000813040008130400084E
:100070001304000813040008130400081304000804
:1000800013040008130400081304000813040008F4
:1000900013040008130400081304000813040008E4
:1000A00013040008130400081304000813040008D4
:1000B00013040008130400081304000813040008C4
:1000C00013040008130400081304000813040008B4
:1000D00013040008314C000813040008130400083E
:1000E0001304000813040008130400081304000894
:1000F0001304000813040008130400081304000884
:100100001304000813040008130400081304000873
:1001100013040008130400085935000813040008EC
:10012000D92F000813040008FD2F0008130400084D
:100130001304000813040008130400081304000843
:100140001304000813040008130400081304000833
:100150001304000813040008130400081304000823
:100160001304000813040008130400081304000813
:100170001304000813040008130400080000000022
:1001800013040008130400081304000813040008F3
:100190001304000813040008130400080000000002
:1001A00013040008130400081304000800F002F808
:1001B00000F012F90AA090E8000C82448344AAF1EE
:1001C0000107DA4501D100F007F9AFF2090EBAE8EC
:1001D0000F0013F0010F18BFFB1A43F0010318477B
:1001E000D0460200F04602000A444FF0000C10F81E
:1001F000013B13F0070408BF10F8014B1D1108BFA5
:1002000010F8015B641E05D010F8016B641E01F844
:10021000016BF9D113F0080F1EBF10F8014BAD1C94
:100220000C1B09D16D1E58BF01F801CBFAD505E0B2
:1002300014F8016B01F8016B6D1EF9D59142D6D30C
:10024000704700000023002400250026103A28BF34
:1002500078C1FBD8520728BF30C148BF0B60704738
:100260004B1C012B98BF70472DE9F003911C9B0894
:10027000B1F80480B1F802900A8831F802CC8044C9
:10028000814402448444D9F80070D8F800601568AD
:10029000DCF80040C9F80060C8F80070CCF80050E5
:1002A0001460D9F80470D8F804605568DCF804408C
:1002B000C9F80460C8F80470CCF8045054600831E0
:1002C0005B1ED5D1BDE8F00370474B1C012B98BFD6
:1002D00070472DE9F003911C9B08B1F80480B1F838
:1002E00002900A8831F802CC00EB580800EB59095B
:1002F00000EB520200EB5C0CD9F80070D8F80060FB
:100300001568DCF80040C9F80060C8F80070CCF847
:100310000050146008315B1EDFD1BDE8F003704768
:100320006E2901F0B582702901F00D8466290DF067
:10033000078565290DF0048567290DF00185612980
:100340000DF0008503681B0A28BF41F08001692970
:1003500001F06282642901F05F82752901F05C82FC
:100360006F2901F09A83782901F0D983E92901F0F6
:100370003583E42901F03283F52901F02F83EF2939
:1003800001F09783F82901F0D8830368DB0928BFBF
:1003900041F08001632901F0B682732901F0BB822C
:1003A000E32902F05F80F32902F0648000207047A7
:1003B0001FB50DF00DFC02F0B3F804000020002181
:1003C0000CF0A8FC401C6060002000210CF08CFCAC
:1003D000E0601FBD10B510BD02F074F81146FFF7C4
:1003E000E7FF09F0D3FA02F051F903B4FFF7F2FF87
:1003F00003BC02F0F7F900000948804709480047AC
:10040000FEE7FEE7FEE7FEE7FEE7FEE7FEE7FEE7C4
:10041000FEE7FEE704480549054A064B7047000021
:1004200091340008AD010008606B022060AF02202B
:10043000606F0220606F02209FED3D0A5FEA920C20
:1004400057D000BFD0ED000A90ED011A0B1D60EEF1
:10045000A00A083041EE010AF5EEC00AF1EE10FAEA
:10046000A6BFB1EEE01A81ED001A81ED000AD0EDD1
:10047000000A90ED011A191D60EEA00A083041EE45
:10048000010AF5EEC00AF1EE10FAA6BFB1EEE01ACD
:1004900083ED001A83ED000AD0ED000A90ED011AF9
:1004A0000B1D60EEA00A083041EE010AF5EEC00A0D
:1004B000F1EE10FAA6BFB1EEE01A81ED001A81ED5F
:1004C000000A90ED001AD0ED010A191D21EE011A63
:1004D000083000EEA01AB5EEC01AF1EE10FAA6BF71
:1004E000F1EEC10AC3ED000A83ED000ABCF1010C74
:1004F000A8D112F0030208BF704700BFD0ED000A78
:1005000090ED011A0B4660EEA00A091D083041EE7D
:10051000010AF5EEC00AF1EE10FAA6BFB1EEE01A3C
:1005200083ED001A83ED000A521EE7D170470000E8
:100530000000000091ED000AD1ED010AD0F814C0CE
:1005400030EE001A70EEA00A0088B6EE000A431ED4
:1005500071EE201A71EE600A0CF1080001EBC30C79
:1005600061EE801A60EE800A0831C2ED001AC2ED19
:10057000010A08329CED003A91ED001ADCED010A07
:10058000D1ED011A73EE413AD0ED002A90ED012A27
:1005900030EEA14A62EEA34A31EE031A62EE233A2C
:1005A00071EEE00A22EE042A31EE241A62EE842A69
:1005B00070EEA30A083031EE021A083170EEE20A3A
:1005C000ACF1080C21EE001A60EE800A82ED001AF0
:1005D000C2ED010A08325B1ECCD17047D1ED000A92
:1005E00091ED011AD0F814C0008870EE811A70EEF7
:1005F000C10AB6EE000A431E61EE801A60EE800A60
:100600000CF10800C2ED001AC2ED010A01EBC30CA7
:1006100001F1080102F1080208BF7047DCED010A90
:100620009CED003A91ED002A91ED011A90ED004AFF
:1006300072EE431AD0ED013A71EE202A32EE032A0F
:1006400064EE214A63EEA11A71EE600A23EEA25A0B
:1006500032EE642A64EE222A70EEA10A083032EEED
:10066000452A083170EEE20AACF1080C22EE002AAD
:1006700060EE800A82ED002AC2ED010A08325B1E9C
:10068000CCD170472DE9F0410446008A1D004FEAA5
:10069000500016460F4620800AD02046FFF79EFFE6
:1006A0002A4631462046BDE8F041012300F08CBBCC
:1006B00001232A46204600F087FB32463946204671
:1006C000BDE8F04136E700004A08002302800182BD
:1006D000B2F5807F31D008DC102A4FD0202A45D0D7
:1006E000402A3BD0802A31D008E0B2F5007F1BD0F1
:1006F000B2F5806F0FD0B2F5006F03D04FF0FF332B
:10070000184670474FF46E628281214A8260214A06
:100710002149426039E04FF4E16282811F4A8260E0
:100720001F4A2049426030E04FF4E07282811E4A45
:1007300082601E4A1E49426027E04FF4DC728281CB
:100740001C4A82601C4A1D4942601EE0D022828100
:100750001B4A82601B4A1C49426016E03822828193
:100760001A4A82601A4A1B4942600EE03022828196
:10077000194A8260194A1A49426006E014228281AD
:10078000184A8260184A194942604161B8E700007E
:100790004CAA0108B45201088C0702083C9C0108CD
:1007A000B43201088CE70108BC980108B4220108A2
:1007B0008CD701084C950108B41A01088CCF0108A8
:1007C000AC930108B41601088CCB01083C930108D6
:1007D000B41401088CC90108DC920108B4130108A3
:1007E0008CC80108B4920108341301080CC8010830
:1007F0002DE9F04106462DED028B8C46008873688A
:1008000001EB80044508274601EB850004EB8502D7
:100810005FEA95087DD000BFD1ED003AD4ED001A13
:1008200091ED012A94ED013A73EEA16A91ED024A2D
:1008300091ED031AD4ED022AD4ED035A90ED008A0B
:1008400090ED017A90ED020A90ED036A92ED005A64
:10085000D2ED014AD2ED027AD2ED030AC1ED006A6F
:1008600072EE036A73EEE13A74EEC71AC1ED016AE3
:1008700074EE226A74EE622A37EEC04AC1ED026A53
:1008800071EE256AC1ED036A72EE436A31EE652AA4
:1008900038EE051A35EE483A80ED001A37EE241A84
:1008A00080ED011A30EE271A80ED021A36EE201A7A
:1008B00080ED031A30EEC61A93ED000AD3ED010A5B
:1008C00063EE804A26EEA05A66EE805A63EEA03AA6
:1008D00074EE854A75EEE33AC4ED004A63EE204AB1
:1008E000C4ED013A61EE803A61EEA00A23EE000AFF
:1008F00074EEE31A30EE800AC2ED001A82ED010AAE
:1009000093ED020AD3ED030A62EE803A22EE203A1A
:1009100000E024E062EEA01A22EE002A73EE832AA1
:100920001030103172EE611AC4ED022A24EE202A32
:10093000C4ED031A61EE001A61EE200A24EE000AEB
:10094000103332EE611A103430EE800A82ED021A52
:1009500082ED030A1032B8F101087FF45DAF294639
:1009600002236046726800F0D5FA72682946BDEC31
:10097000028B3846BDE8F041022300F0CBBA2DE9E6
:10098000F34F2DED048B87B00B980088470801EBDF
:10099000870000EB870606EB8705CDE90056DDF8FA
:1009A0002C80A5F1040C0CEB8703CDE902014FEA82
:1009B0005709D8F804800427CDE90497D1ED000A3F
:1009C00096ED000A90ED011A95ED013A70EE802A3D
:1009D00070EEC03AD1ED010A96ED010A041F321FF4
:1009E00030EE802A70EEC01A31EE230AD0ED000AF4
:1009F00032EE415A33EEC11A30EE434A71EEE04A0C
:100A000095ED000A70EEA11A35EE435A74EE805A45
:100A100072EEE04A70EEA20A71EEC01A31EE031ACD
:100A200074EEC04A30EE800A062708F1080A81ED0C
:100A3000000A90ED010AD5ED010A08F1100B30EE25
:100A4000020A08F1180830EE200A81ED010A80ED53
:100A5000004AC0ED015AC6ED004A86ED015A85ED07
:100A6000001AC5ED011ADDF810900830083108357C
:100A70000836A9F102095FEA590900F0078100BFB1
:100A8000D1ED000A96ED000AD0ED011AD5ED014A2C
:100A900030EE802A30EEC05AD1ED010A96ED010AFF
:100AA00070EE802A30EEC01A31EE850AD5ED000ACC
:100AB00030EE644A90ED000A31EE403A30EE011A11
:100AC00073EE205A32EE403A30EE020A31EE601AEE
:100AD00073EE603A30EE200A32EEE13A75EE611ABA
:100AE00081ED000A90ED010AD5ED010A33EE643A7A
:100AF00030EE220A71EEA41A30EE200A81ED010ACE
:100B0000D4ED002ADCED004A54ED010A1CED010A87
:100B100032EEA47A32EEE49A72EEE42A52ED018AC1
:100B200070EE807A30EEC02A72EEE82AD2ED000A2A
:100B300093ED000A13ED018A30EEC05A72EE886A16
:100B400077EEE82A35EE026A32EEC85A77EE602A6E
:100B500072EEC04A70EEC02A70EE870A72EEC22AA8
:100B600030EE800A38EE682A84ED000A12ED010AA0
:100B700053ED010A32EE492A30EE270A30EE200A00
:100B800004ED010A9AED000ADAED010A64EE007A3A
:100B900025EEA07A65EE805A24EE204A37EE877A59
:100BA00035EEC44A80ED007A80ED014A26EEA04A77
:100BB00066EE005A66EE200A26EE800A083034EE11
:100BC000654A083130EE800A82ED004A083C02EDA9
:100BD000010A9BED000ADBED010ADDF814E023EECB
:100BE000804A63EE205A23EE003A63EEA03A083AB8
:100BF00034EE254A0BEB8E0B33EE633A86ED004A5A
:100C00000AF1080A86ED013AB1EE643A083663EE5D
:100C1000003A25EE203A25EE000A64EEA00A33EEF3
:100C2000C33A30EEC00A8CED003A0CED010A98EDA3
:100C3000000AD8ED010A08EB870861EE803A21EE40
:100C4000203A21EE001A61EEA01AACF1080C33EE46
:100C5000833A31EE611A85ED003A62EE801A85ED35
:100C6000011A22EE201A62EEA00A22EE000A0835CE
:100C700031EE611A30EE800A83ED001A03ED010AAD
:100C8000083BB9F101097FF4FBAE00BFD1ED000ACA
:100C900096ED000A91ED011AD0ED015A30EE802A4E
:100CA00070EEC00A96ED010A95ED015A042371EE2B
:100CB000001A71EE404A35EEA00A90ED001A31EEAE
:100CC000E54A70EEE50A30EE453A95ED000A34EE5D
:100CD000454A30EE855A74EEC12A72EE413A71EE01
:100CE000240A31EE021A72EE802A73EEC03A70EED8
:100CF000C00A31EE000A81ED000A90ED010A95ED7F
:100D0000011A30EE210A30EE010A81ED010A9AED56
:100D1000000A9AED011A63EE001A22EE812A22EEF1
:100D2000800A23EE011A71EE821A30EE410AC0EDFC
:100D3000001A80ED010A9BED000A9BED011A63EE9B
:100D4000801A24EE012A24EE000A23EE811A71EEA5
:100D5000821A30EE410AC6ED001A86ED010A98EDBE
:100D6000010A98ED001A60EE801A25EE012A60EE65
:100D7000810A25EE000A32EE211A30EEC00A85ED16
:100D8000001A85ED010A0B984268DDE9030100F0C5
:100D9000C1F80B98042304994268029800F0BAF84D
:100DA0000B98042304994268019800F0B3F80B985B
:100DB000049904234268009807B0BDEC048B02B08C
:100DC000BDE8F04F00F0A6B82DE9F0410488984640
:100DD00017460D460646012A20D1281DF4B1A0F180
:100DE000080114F0010F06D091ED020AB1EE400A9D
:100DF00081ED020A08315FEA540C0FD091ED020A2E
:100E0000B1EE400A81ED020A91ED040AB1EE400A0A
:100E100081ED040A1031BCF1010CEFD1B4F5807FF3
:100E20001BD008DC102C13D0202C16D0402C19D04D
:100E3000802C0DD01CE0B4F5007F13D0B4F5806F8A
:100E400006D0B4F5006F08D0B4F5805F0AD00FE08B
:100E500029463046FFF7CCFC0AE029463046FFF72A
:100E60008EFD05E0214601232846726800F052F805
:100E7000B8F1000F04D0B1892846B268FFF7F0F945
:100E8000012F18BFBDE8F08100EE104AB7EE001A3E
:100E9000002CF8EE400A81EE200A08BFBDE8F08180
:100EA000A5F1080014F0010F0ED0D0ED020A60EE9B
:100EB000800AC0ED020AD0ED030AF1EE600A60EE8E
:100EC000800AC0ED030A0830610808BFBDE8F08160
:100ED000D0ED020A60EE800AC0ED020AD0ED030AEE
:100EE000F1EE600A60EE800AC0ED030AD0ED040A5C
:100EF00060EE800AC0ED040AD0ED050AF1EE600A4A
:100F000060EE800AC0ED050A1030491EE0D1BDE850
:100F1000F08100002DE9FF4F2DED108B82B09FED89
:100F2000FEFA0B461C46DB084FF0000C0CEB0305E9
:100F300005EB030808EB030909EB030606EB030ABC
:100F400000EBCC0700EBC60697ED001AD6ED000AC1
:100F50000AEB030B00EBC50500EBCA0A31EE200AD1
:100F600071EE601A95ED002ADAED000A0BEB030E24
:100F700000EBC80832EE201A00EBCB0B32EE602AF1
:100F8000D8ED002ADBED000A00EBC90900EBCE0E1C
:100F900099ED003A9EED004A72EEA03A72EEE02A18
:100FA00073EE040A33EE443A70EE636A70EE233A4D
:100FB00031EE600A71EE200A33EEA01A73EEE00AF9
:100FC00087ED001AC6ED000A97ED011AD6ED010A69
:100FD000D5ED013A98ED014A31EE206A71EE600AD2
:100FE0009AED011A99ED015A73EE814A73EEC13AF6
:100FF0009BED011A34EE017A34EE411A9EED014A5E
:1010000075EE045A35EE444A36EE475A36EE076A14
:1010100034EEE57A74EEA54A76EE245A76EE644A0A
:10102000C7ED015AC6ED014A76EE874AC8ED004A7F
:1010300076EEC74ACBED004A75EE404A35EE000A1F
:10104000C8ED014A8BED010A32EE430A32EE032A63
:1010500020EE0F0A62EE0F4A33EEC42AA4448C45F8
:1010600022EE0F3A33EE842A30EEC34A62EE0F3A94
:1010700030EE833A31EEC02A31EE800A71EE630A17
:1010800031EE231A72EEE41A72EEA42A70EE013ADF
:1010900030EE410AC5ED003A8EED000A32EE200A2C
:1010A0008AED000A32EE600A89ED000A33EE620A28
:1010B00085ED010A33EE220A8EED010A34EE610A53
:1010C0008AED010A34EE210A89ED010AFFF42EAF00
:1010D000082B3FBF02B0BDEC108B04B0BDE8F08F11
:1010E0004FF0000CCDF804C04FF0010CCDF800C05B
:1010F000DDF804C0159DAC444FEA8C0505EB0C07E8
:10110000CDF804C007EB0C094FEA4C0808EB0C06BD
:1011100009EB0C0A02EBCC0C02EBC80802EBC6068A
:1011200002EBC50502EBC70702EBC90902EBCA0ACD
:101130009CED00DA9CED018AD8ED00CA96ED00CA5C
:10114000D5ED00BA97ED00BAD9ED00AADAED008A24
:10115000D8ED017A96ED01AA95ED017AD7ED016AF5
:1011600099ED016ADAED019ADDF800C00CEB030796
:10117000FD1805EB030A0AEB030808EB030606EB70
:10118000030B00EBCC0900EBC808D9ED000A98ED81
:10119000000A00EBC70700EBC606D7ED001A96ED74
:1011A000001A70EE803A0BEB030E70EEC00A31EEBF
:1011B000810A00EBC50500EBCB0B31EEC11AD5ED72
:1011C000001A9BED002A00EBCA0A00EBCE0E31EEAE
:1011D000824A71EEC21A9AED002ADEED002A32EE42
:1011E000223A32EE622A73EEC42A73EE843A30EE6B
:1011F000435A30EE030A33EE803A73EEC0DA89EDDB
:10120000003A99ED010A98ED013AD7ED013A95EDD2
:10121000014A70EE03EA30EE433A96ED010A9AED88
:1012200001EADEED014A33EE809A73EEC03A9BED9F
:10123000010A74EE005A34EE404A3EEE240A7EEE75
:10124000644A3EEEE5EA7EEEA55A79EE40EA39EED2
:10125000009A32EEAE0A72EEEE2A75EE89EA35EEAB
:10126000C99A7EEE455AC9ED01EA3EEE055A2BEECB
:10127000ADEA67EE09EA2BEE899A67EE2DDA3EEECB
:101280002EEA39EE6D9A88ED00EA67EEA5DA88ED70
:10129000019A2CEE809A6CEEA55A27EE800A39EE60
:1012A0002D9A35EEC00A85ED009A66EE055A85ED59
:1012B000010A2AEEA20A2AEE855A66EE222A30EEAA
:1012C000250A8BED000A35EE620A73EEA42A8BED37
:1012D000010A31EE420A31EE021A33EEE42A62EEDE
:1012E0008F3A20EE0F0A21EE0F1A22EE0F2A70EE2F
:1012F000C02A30EE800A71EEC10A71EE811A33EE17
:10130000421A33EE022A34EE633A34EE234A70EE88
:10131000043A30EE444A01E0F304353F72EE834A6A
:1013200072EEC32A32EE613A32EE210A71EE601A91
:1013300071EE200A2DEE232A28EE031A2DEE033A31
:1013400068EE233AA44432EE011A28EE842A8C4532
:1013500087ED001A33EE631A29EE843A87ED011AFD
:1013600029EE801A28EE800A32EE011A30EE430A86
:1013700026EEA42A8EED001A8EED010A2BEE240A29
:1013800026EEA11A6BEE211A30EE010A2CEE221A7B
:1013900086ED000A31EEC20A6AEE221A86ED010AD3
:1013A0002AEE200A6CEE200A31EE000A8AED000ACD
:1013B00030EEE10A8AED010AFFF4D8AEDDF800C094
:1013C0000CF1010CCDF800C063453FF691AEDDF89D
:1013D00054C04FF6FF7404EACC0CCDF854C0072B70
:1013E0003FF6A0AD02B0BDEC108B04B0BDE8F08FAD
:1013F0001CB50C46064B7B4469460090204600F025
:1014000060FA04460020694600F06EFA20461CBDD2
:10141000EF0400000FB41CB5084B06AA7B446946D4
:101420000090059800F04DFA04460020694600F04F
:101430005BFA20461CBC5DF814FB0000C9040000E8
:1014400070B50C460546012A05D02878800600D5DF
:10145000EA69002302E0012305E05B1C934202D20B
:10146000E05C0028F9D1A869E618C01AA861286ACA
:1014700018442862284600F096F904E0D5E90121D5
:1014800014F8010B9047B442F8D3284600F0A1F9B4
:1014900070BD00002DE9F05F894604464FF0000A58
:1014A000DFF874B1FB44C0F820A02046E16888470B
:1014B000002874D0252806D0D4E901219047206A5D
:1014C000401C2062F1E700265F462046E16888471D
:1014D0002028054607DB312D05D2781910F8200C9D
:1014E00008B10643F1E7B00701D526F00406C4F8B9
:1014F0001CA00027C4F818A02A2D09D0284604F003
:101500005BFE38B304EB8708303DC8F8185019E08B
:1015100059F8041B204604EB87029161E168884773
:10152000012F054618D1E069002820DA26F02006B0
:101530001DE0D8F8180000EB800005EB40003038C3
:10154000C8F818002046E1688847054604F034FED4
:101550000028EED1012F0AD02E2D08D12046E168B7
:1015600088477F1C0546022F46F02006C4DBA06991
:10157000002803DA404246F00106A061F00701D0DE
:1015800026F010066C2D0BD0682D09D04C2D39D0CB
:101590006A2D35D0742D35D07A2D33D016E038E051
:1015A000E1682F4620468847B842054609D16C2F8E
:1015B00026D04FF48060E168064320468847054600
:1015C00004E06C2F1AD04FF4807006430DB3A5F1E0
:1015D0004100192802D8203546F400664A462946BB
:1015E000204626604E46FEF79BFE80B101280BD0B8
:1015F000F61D26F0070000F1080956E74020E4E751
:101600008020D8E70020D6E706F104094DE72846F8
:1016100052E7206ABDE8F09FE432020040EA01038D
:1016200010B59B070FD1042A0DD310C808C9121F8B
:101630009C42F8D020BA19BA884201D9012010BDC5
:101640004FF0FF3010BD1AB1D30703D0521C07E092
:10165000002010BD10F8013B11F8014B1B1B07D1F6
:1016600010F8013B11F8014B1B1B01D1921EF1D167
:10167000184610BD10B5431C02E010F8011B71B1F3
:101680008107FAD14FF0013202C88C1A8C4314EA58
:10169000C211F9D0C01A0A0603D0C01E10BDC01A6C
:1016A00010BD0A0401D0801E10BD0902FCD0401EEE
:1016B00010BD032A40F2308010F0030C00F01580BA
:1016C00011F8013BBCF1020F624498BF11F801CB45
:1016D00000F8013B38BF11F8013BA2F1040298BFAA
:1016E00000F801CB38BF00F8013B11F0030300F014
:1016F0003582083AC0F0088051F8043B083A51F8A6
:1017000004CBA0E80810F5E7121D5CBF51F8043BBC
:1017100040F8043BAFF30080D20724BF11F8013B2F
:1017200011F801CB48BF11F8012B24BF00F8013B91
:1017300000F801CB48BF00F8012B70474FF00002C2
:1017400000B5134694469646203922BFA0E80C50B7
:10175000A0E80C50B1F12001BFF4F7AF090728BF92
:10176000A0E80C5048BF0CC05DF804EB890028BF0E
:1017700040F8042B08BF704748BF20F8022B11F037
:10178000804F18BF00F8012B7047704770477047B3
:1017900010B500F015FA006810BD10B5044600F051
:1017A0000FFA046010BD70B5044685690068C10673
:1017B00001D5302600E02026C00707D070BDD4E94F
:1017C000012130469047206A401C20626D1EF6D5EC
:1017D00070BD70B5044685690078C00707D170BD3B
:1017E000D4E9012120209047206A401C20626D1E10
:1017F000F6D570BD09684A0501D540B27047C905E4
:10180000FCD500B2704709684A0501D5C0B27047DF
:10181000C905FCD580B270472DE9F0410646002489
:1018200010687529314616A510D0FFF7E3FF002890
:1018300002DA404213A507E031688A0701D512A5F4
:1018400002E0490704D511A5012401E0FFF7DBFF01
:1018500000210A2206F1240709E0B0FBF2FCB0FBEC
:10186000F2F302FB1C00303078541846491C002863
:10187000F3D123462A463046BDE8F04100F002BAD3
:10188000000000002D0000002B00000020000000E0
:1018900011680268006A530501D508700AE0D30593
:1018A00001D5088006E0130603D5C217C1E900027E
:1018B00000E008600120704701694A1C0261087855
:1018C000704700B58FB0CDE9013100210591054980
:1018D0007944CDE9031011466846FFF7DBFD0FB0F0
:1018E00000BD0000E5FFFFFF0A6802F8010B0A6077
:1018F000704710B5436913B1AFF3008001E0FFF703
:101900009FFD012010BD127800F124010A70002211
:101910004A700122EDE711684FF0FF32E9E700005D
:101920002DE9FF5F15468A460446DFF8AC80F8448F
:101930000027D8E900103E46CDE9001010E03AF843
:1019400016106A4602A800F099FD411C07D02178C4
:10195000890603D5E269391891420DD80744761CEF
:101960002078800602D5E069B84205DDAE42E6DBAC
:101970003AF816000028E2D1A069C01BA0612046F9
:10198000FFF711FFD8E90010CDE90010002017E0A3
:101990003AF818106A4602A800F070FDB0F1FF3F57
:1019A00081460BD000250DF1080B05E0D4E901219B
:1019B0001BF8050090476D1C4D45F7D308F1010059
:1019C000B0428046E4DB206A384420622046FFF7BC
:1019D00000FFBDE8FF9F00006E2E02002DE9F041E0
:1019E0008046D21D22F007020025D2E90002F52927
:1019F00015A614D0011E72F1000106DA0023D0EB07
:101A0000030063EB020211A608E0D8F800108B0770
:101A100001D50FA602E0490701D50EA60125114602
:101A2000002408F1240704E000F0CEF830323A55E3
:101A3000641C50EA0102F7D12B463246214640464B
:101A4000BDE8F04100F01EB9000000002D000000CC
:101A50002B0000002000000030B4002100F124041D
:101A600008E002F00705D208303542EA4372DB088D
:101A70006554491C52EA0305F3D10468002310A2FF
:101A8000250707D5A40600D421B1C46901230DA2FE
:101A9000641EC46130BC00F0F5B810B504462146A0
:101AA0001068FFF7B0FE02462046BDE81040002354
:101AB000D2E7D21D22F00701D1E90023CCE70000D4
:101AC0000000000030000000F0B40D460188090558
:101AD00002D5214C7C4402E01F4C7C440E34002192
:101AE00000F1240608E002F00F071209E75D42EA60
:101AF00003721B097754491C52EA0307F3D1027899
:101B00000023120704D5702D06D009B10223113429
:101B10002246F0BC00F0B6B801231034F8E770B5E7
:101B200004460D4621461068FFF76DFE0246294621
:101B30002046BDE870400023C6E7D21D22F007030F
:101B4000D3E90023C0E70368126843F02003036071
:101B50000823C3610023B7E7D02C020010B5203A58
:101B6000C0F00B80B1E81850203AA0E81850B1E856
:101B70001850A0E81850BFF4F5AF5FEA027C24BF0C
:101B8000B1E81850A0E8185044BF18C918C0BDE803
:101B900010405FEA827C24BF51F8043B40F8043BCC
:101BA00008BF7047D20728BF31F8023B48BF11F881
:101BB000012B28BF20F8023B48BF00F8012B7047DB
:101BC00000487047006B022030B5B0F10A024FEABE
:101BD000900E71F100034EEA817EB0EB0E0061EBD6
:101BE00091014FEA101E4EEA017E10EB0E0041EB10
:101BF00011114FEA102E4EEA016E10EB0E0041EB70
:101C000011214FEA104E4EEA014E10EB0E0041EB4F
:101C10001141401841F100014FEAD00040EA417003
:101C20004FEAD10110EB80054FEA810444EA907439
:101C300044EB01046D1944EB0404521BA3414FF023
:101C4000000348BF0A3200D530BD401C41F10001FD
:101C500030BD00001FB584B000200A9C06AB04AA6A
:101C600002A90094AFF3008018B1DDE9020108B0C9
:101C700010BD0348204000F012FD00200146F6E7A9
:101C80000000207C2DE9F0470D4699469246044617
:101C900000F124080168880604D5E06921F01001EC
:101CA000216000E00120A84201DD471B00E0002781
:101CB000A1697A1902EB0900081AA0612078C00610
:101CC00002D42046FFF76FFD002608E0D4E9012189
:101CD0001AF806009047206A401C761C20624E4588
:101CE000F4DB2078C0060AD52046FFF75CFD06E04D
:101CF000D4E9012130209047206A401C2062381E20
:101D0000A7F10107F4DC07E0D4E9012118F8050088
:101D10009047206A401C2062281EA5F10105F3DCD3
:101D20002046FFF756FD2078000602D50220BDE8C8
:101D3000F0870120FBE770472DE9FF4F0C461E4658
:101D40004FF0FF378BB0D2E90001DDF860800A90D8
:101D50008A46C1F30A5505B93D46002108460BF0F5
:101D6000DFFFBAF1000F00F4400005DA00EB80005D
:101D70004FF4400101EA50004FEA9059B9F1010FC8
:101D800000DDB9460A9850EA4A000ED044F61050D9
:101D9000A5F2FF3545432F14B8F1000F1ED0754250
:101DA000291E1EDDC9F100021CE0B8F1010F4FF041
:101DB000000001D0302103E0F24305E02154401C33
:101DC000B042FBDB30460022002121540B99C1F8C0
:101DD0000880C1E900200FB0BDE8F08FBD1B6D1C6D
:101DE000DEE74A4600DA694206A800F0DDFB06ABF2
:101DF00093E8070003AB83E8070050460A9900F018
:101E000018FD8DE80700A0F500501F3800900398DA
:101E1000002D0ADD42F21F014A460844002303A9AF
:101E20000390684600F081FF09E0A0F500504A46A3
:101E30001F38002303A90390684600F08BFF8DE84C
:101E400007000004000C03D04FF0FF30410800E011
:101E50001046B8F1000F03D00022009215461EE094
:101E6000751E05D4FFF7B0FE303262556D1EF9D5F0
:101E7000B3460122084302D000227F1C04E02078F0
:101E8000302801D100227F1E002A099784D01DE04E
:101E9000112D07DAFFF798FE303262556D1C50EABB
:101EA0000102F5D1084302D00098C8B10EE000212C
:101EB000681E05E0235C625C63542254401E491C8A
:101EC0008142F7DBAB46A81B401E0990002004F8B6
:101ED0000B000B98099AC0F80880C0E9002B7AE73C
:101EE00011264FF0000857E72DE9F04F88460446C9
:101EF000D21D22F0070191B0D1E90001CDE90A011C
:101F000003F0CCFF02460B98C00F01D02D2007E054
:101F10002068810701D52B2002E0202101EAC000C2
:101F2000032A099001D0072A05DB034641462046D3
:101F300000F0FAFA0BE12078800601D5E06900E0B4
:101F40000620B8F1650F814606D0B8F1660F18D0AB
:101F5000B8F1670F70D131E00020B9F1110F009096
:101F600001DB112301E009F101030AAA01A90CA870
:101F7000FFF7E2FEDDE90C70002609F1010583465A
:101F800047E001204B4600904FF000470AAA01A904
:101F90000CA8FFF7D1FEDDE90DB00C995D460026D7
:101FA00010B909F101000D18B9EB050003D4C0F117
:101FB000FF3609F10105A5EB09002BE0B9F1010F8E
:101FC00001DA4FF001090020B9F1110F00904846E5
:101FD00001DD112300E003460AAA01A90CA8FFF7BE
:101FE000ABFEDDE90C704D460026834620780007E5
:101FF0000AD4AB4500DA5D4601A8012D04DD411984
:1020000011F8011C302907D04F4502DA17F1040FEF
:1020100004DA012082460FE06D1EEEE7002F02DC9D
:10202000ED1B3E4403E0781CA84200DD7D1CB81B7C
:1020300000F1010A4FF000472078000703D4AA45B9
:1020400001DB4FF0FF3A0021B7F1004F0DF14308DB
:102050008DF8431024D002202B23002F01DA7F4279
:102060002D230A21021EA0F1010000DC5FB197FBC5
:10207000F1FC97FBF1F201FB1C7C17460CF1300CD4
:1020800008F801CDEEE7A8F10100037021880905E9
:1020900001D5452100E06521A0F1010800F8011CEF
:1020A00009980FA9A1EB0807FF1D00B101204119F4
:1020B00001EBEA70A1693844081A401EA06120783B
:1020C000C00602D42046FFF76EFB099828B1D4E978
:1020D00001219047206A401C20622078C00622D54A
:1020E0002046FFF760FB1EE0002E04DBB34502DD57
:1020F00001A8805D00E03020D4E901219047206AEA
:10210000401C2062761CAAF101005FEA000A0AD195
:1021100000F006FAC0680168405CD4E901219047EC
:10212000206A401C2062281EA5F10105DCDC07E0C6
:10213000D4E9012118F8010B9047206A401C206265
:10214000381EA7F10107F3DC2046FFF742FB03200E
:1021500011B041E62DE9F04F04460D46D21D22F0A4
:10216000070089B0D0E900974846394603F096FE4B
:102170000246F80F01D02D2307E02068810701D522
:102180002B2302E0202101EAC0038DF820300BB19F
:10219000012000E00020032A824601D0072A04DB48
:1021A0002946204600F0C0F93FE12078800601D49E
:1021B0000D2500E0E569C7F30A560D2D49DA002127
:1021C0004FEA175B08460BF0ABFD002F00F4400010
:1021D00007DA00EB80004FF4400100EBD07001EA19
:1021E00060008115012901DD4FF0FF3100224FEA27
:1021F000850CBCF1180F06D31346ACF118004FF054
:102200008052C24003E04FF4801323FA0CF30CF128
:102210000C0CBCF1200F04D3ACF1200C09FA0CF02B
:1022200001E007FA0CF000294FF0004801DD18B971
:102230000FE00ED140450CD319EB02095F4121B9E3
:10224000404502D19F4329EA0209BBEB175F00D04A
:10225000761C2088000502D57B48784402E07A4845
:102260007844193808AA302302F80A30037C0AF1AE
:102270000101002E0AF1020A53546A4602DC4FF0B3
:10228000300101E04FF031014FF001088DF80010EE
:1022900002D0A6F2FF3603E059EA470100D06B4EA8
:1022A000002D02DC2178090704D54FF002082E2109
:1022B0008DF80110C44600210BE0C7F303433F0132
:1022C000C35C491C6D1E02F80830052908F101089D
:1022D00001DA002DF1DC00210CE000EB1973491C40
:1022E0001B786D1E082902F808304FEA091908F119
:1022F000010801DA002DF0DC21688B0602D516E01A
:10230000A8F10108E04505DD02EB080313F8013CE4
:10231000302BF5D0B8F1000F09DD02EB080313F8FC
:10232000013C2E2B03D1090701D4A8F10108002D8F
:1023300005DD3E2102F808106D1E08F10108407C01
:10234000002E02F8080008F1010804DA2D20764278
:1023500002F8080002E02B2002F808000A214FF4DE
:102360007A70864208F101080BDB96FBF0F33033FC
:1023700002F8083096FBF0F308F1010800FB136641
:1023800001E0642E0CDB642096FBF0F3303302F89E
:10239000083096FBF0F308F1010800FB136601E03A
:1023A0000A2E06DB96FBF1F0303002F8080008F147
:1023B000010896FBF1F001FB1060303002F80800D4
:1023C000A16908F1010808EB050202EB0A00081AEE
:1023D000A0612078C00602D42046FFF7E4F9216A04
:1023E00008AE01EB0A00206204E0D4E9012116F8EE
:1023F000010B9047BAF1010AF7D22078C00602D546
:102400002046FFF7D0F96E4609E016F8010B3E288A
:102410000FD0D4E901219047206A401C2062B8F116
:102420000108F2D22046FFF7D4F909B00320BDE835
:10243000F08F206A2844206203E0D4E90121302093
:1024400090476D1EEBD3F8E78525020002FCFFFFE5
:1024500010B5436913B1AFF3008001E0FFF760FAF4
:10246000012010BD128800F1240182840022C28460
:102470000122EDE711684FF0FF32E9E770B516462B
:102480000C46054600F044F8036893F80101012862
:1024900006D0FF2C0FD8185D68B101202C7070BDDC
:1024A000D3F807013246214603F2071303442846B6
:1024B000BDE8704018474FF0FF3070BD00487047CE
:1024C000006B02207546FFF7F9FFAE46050069462E
:1024D000534620F00700854618B020B5FDF79AFF57
:1024E000BDE820404FF000064FF000074FF0000815
:1024F0004FF0000B21F00701AC46ACE8C009ACE896
:10250000C009ACE8C009ACE8C0098D4670470000BE
:1025100010B500F005F8001D10BD00BFF9A70000C0
:1025200000487047206B02202DE9F0411F46044609
:1025300003260168072A01F4006004DB08B116A530
:1025400005E016A503E008B115A500E015A521F0EA
:1025500010002060A069C01EA0610FB1401EA061E4
:102560002046FFF720F94FB1D4E9012138469047C2
:10257000206A401C2062C01C206206E0206AFAE744
:10258000D4E9012115F8010B9047761EF8D22046B8
:10259000FFF71FF9BDE8F0814E414E006E616E00FD
:1025A000494E4600696E66002DE9F04781461646A1
:1025B0008AB0354878440DC88DE80D00324878441B
:1025C000801C03AC0DC884E80D0041F69B30084424
:1025D000372190FBF1F290FBF1F5A5F1800501FBAD
:1025E00012041B3C02D56442012000E00020DFF809
:1025F00098A080460027FA44AAF1BE0A0EE0E00740
:102600000AD03246684607EB470101230AEB8101F5
:1026100000F0A0FB8DE8070064107F1C002CEED1B9
:10262000194F7F44AE3F19E0E80715D007EB0410BF
:102630000DF1180A90E80E008AE80E00C068F0421A
:1026400001D1981908903246012306A903A800F089
:1026500081FB03AB83E807006D10641C002DE3D100
:102660004FF0010332466946B8F1000F03A802D0CB
:1026700000F05BFB01E000F06DFBC9E90001C9F867
:1026800008200AB0BDE8F087BC22020010B504465D
:10269000AFF300802046BDE81040FDF7A6BE10B5A0
:1026A00000F00AF8BDE81040AFF30080002801D028
:1026B00000F098B87047000010B5022803D041011F
:1026C00003D50DA112E0002010BD010101D50FA11D
:1026D0000CE0C10001D511A108E0810001D512A1D3
:1026E00004E0400001D513A100E0002115A000F096
:1026F0007FF8012010BD0000496E76616C6964208E
:102700004F7065726174696F6E000000446976698C
:102710006465204279205A65726F00004F766572B9
:10272000666C6F7700000000556E646572666C6FB2
:1027300077000000496E6578616374205265737597
:102740006C7400005349474650453A204172697401
:10275000686D6574696320657863657074696F6E10
:102760003A2000004FF0013C50F8042B51F8043B94
:102770009A4221D1A2EB0C03934313EACC1317D155
:1027800050F8042B51F8043B9A4215D1A2EB0C03EC
:10279000934313EACC130BD150F8042B51F8043BAC
:1027A0009A4209D1A2EB0C03934313EACC13DBD07A
:1027B0004FF00000704700BFD01A01BAB1FA81F1A2
:1027C00001F0180122FA01F0CB40C1F12001DBB287
:1027D000C0B2C01A2CFA01F3D11A914311EAC31105
:1027E000E6D1704701491820ABBEFEE72600020083
:1027F00070B505460C460A2000E06D1C00F011F88B
:1028000035B128780028F8D102E0641C00F009F8FE
:1028100014B120780028F8D1BDE870400A20AFF349
:10282000008008B569468DF800000320ABBE08BDE6
:1028300070475FEA400C08BF91F0000F4FEA8C230D
:102840004FEAC12243EA51514FEA1C5018BF00F52C
:10285000F0404FEA300018BF41F000415FEA6C5C85
:1028600000F02980BCF1FF3F08BF40F08040704776
:10287000130C06BF12044FF0100C4FF0000C130E97
:1028800004BF12020CF1080C130F04BF12010CF16B
:10289000040C930F04BF92000CF1020CD30F04BF81
:1028A00052000CF1010C11464FF00002A0F11F0084
:1028B000A0EB0C00704711F0004F08BF704731F0DB
:1028C00000413FF4D5AF0B0C06BF09044FF0100CCC
:1028D0004FF0000C0B0E04BF09020CF1080C0B0F9B
:1028E00004BF09010CF1040C8B0F04BF89000CF12B
:1028F000020CCB0F04BF49000CF1010CCCF12003FA
:10290000A0EB0C0022FA03F302FA0CF241EA0301F5
:1029100000F10100704720F07F4C80EA030023F0B3
:102920007F47ACEB070303F57C5300F0004003F155
:10293000FF032DE980494FEA154B09B44FEA1443D0
:1029400025EA0B4E24EA03480FF2042606EB132770
:1029500049083E785FEA320203FB0667C7F50007C5
:1029600007FB06F64FEA54374FEAD64606F1020651
:1029700007FB066CCCF1005C4FEA1C472CEA074CC5
:1029800007FB06F40CFB06F504EB15464FEA96161A
:1029900034BF00204FF000404FEAD13706FB07FC60
:1029A0004FEA1C4C0CFB0BF7D21B03FB0CF761EB43
:1029B00007010CFB0EF7B0EB074072EB17420CFB64
:1029C00008F734BFA2EB0742B2EB074261EB1741B5
:1029D0004FEA0C444FEA910706FB07FC4FEA1C4CF8
:1029E0000CFB0BF7B0EBC74072EB573203FB0CF755
:1029F00034BFA2EBC742B2EBC74261EB57310CFBCD
:102A00000EF7B0EBC70072EB57720CFB08F734BF40
:102A1000A2EBC702B2EBC70261EB5771039F4FEA0B
:102A2000816141EA921104EBCC044FEAD1374FEABD
:102A3000826206FB07FC42EA90124FEA80604FEA8E
:102A40001C4C0CFB0BF7D21B03FB0CF761EB0701D3
:102A50000CFB0EF7B0EB074072EB17420CFB08F7CC
:102A600034BFA2EB0742B2EB074261EB17414FEADA
:102A70008C554FEA910704EB9C2406FB07FC4FEAB8
:102A80001C4C0CFB0BF7B0EBC74072EB573203FB4F
:102A90000CF734BFA2EBC742B2EBC74261EB573130
:102AA0000CFB0EF7B0EBC70072EB57720CFB08F78C
:102AB00034BFA2EBC702B2EBC70261EB577115EB53
:102AC0004C254FEA816141EA92114FEA82624FEA56
:102AD000D13742EA901206FB07FC44F100044FEAAA
:102AE00080604FEA1C4C0CFB0BF7D21B03FB0CF76E
:102AF00061EB07010CFB0EF7B0EB074072EB1742DE
:102B00000CFB08F734BFA2EB0742B2EB074261EBC4
:102B1000174115EB1C154FEA813141EA92414FEA0A
:102B2000823242EA90424FEA80304FEA0C7644F11A
:102B3000000448EA03434EEA0B484FF0000EB2EBA4
:102B4000080C71EB030724BF624639464EEB0E0EAC
:102B50004FF0000B0018524149414BEB0B0BB2EB0D
:102B6000080C71EB03077BF1000B24BF624639466A
:102B70004EEB0E0E4FF0000B0018524149414BEB4B
:102B80000B0BB2EB080C71EB03077BF1000B24BFBE
:102B9000624639464EEB0E0E51EA020718BF46F068
:102BA000010616EB0E7655F1000254F1000103D533
:102BB000BDE88901BDE80088BDE88901BDE800489D
:102BC000B619524141EB0101A3F101037047808026
:102BD0007F7E7D7C7B7A7978777676757473727177
:102BE00071706F6E6E6D6C6C6B6A6A69686867662F
:102BF00066656464636362616160605F5F5E5E5DC1
:102C00005D5C5C5B5B5A5A59595858575756565534
:102C100055555454535352525251515050504F4F96
:102C20004F4E4E4D4D4D4C4C4C4B4B4B4A4A4A49E6
:102C30004949484848474747474646464545454429
:102C40004444444343434342424242414141002BB6
:102C50009C4630D477002BD01CB54FEA370703B41D
:102C60004FF010004FF01001BAF1000F06D0BCF188
:102C7000000FDCBF40F0080040F008010BF050F8F6
:102C80000FBCBDE810400BF1010BBBF1010F08BFF9
:102C90005FEA170722BF12F1010211F101014FF0A3
:102CA000004143F1000300F0004043EA0000704798
:102CB000F9D35708D0E746EA064613F1400F4FEA2A
:102CC00016461FDD13F1200FDFBF16430A46002111
:102CD00020335B42BED0C3F1200746EA064602FA23
:102CE00007F74FEA164646EA0706C3F1200722FA1D
:102CF00003F201FA07F721FA03F14FF0000342EA69
:102D00000702A7E746EA020646EA06464FEA1646E3
:102D100046EA0106BCBF46EA0646360C4FF0000301
:102D20004FF000024FF0000194E72DE9804C9A46E5
:102D3000934670B491E8380007C831EA400C48BFA8
:102D400034EA430C03D5FFF7E6FDFFF780FFF0BC44
:102D5000BDE8008C2DE9804C9A46934670B491E80A
:102D6000380007C810F0804F08BF13F0804F03D120
:102D700000F005F8FFF76BFFF0BCBDE8008C20F019
:102D80007F4780EA030023F07F4C07EB0C03A3F599
:102D90007C5300F00040A3F1FE0392F0000F00F01E
:102DA000B38095F0000F00F077802DE901494FEADC
:102DB00011404FEA144621EA004800FB06FC24EAD1
:102DC000064708FB06F607FB08F800FB07F718EBB9
:102DD00006484CEB164C4FEA124B18EB07484FEAEB
:102DE00015464CEB174022EA0B4E0BFB06FC25EA7E
:102DF00006470EFB06F607FB0EFE0BFB07F71EEB66
:102E0000064E4CEB164C4FF000061EEB074E4CEBFB
:102E1000174B18EB0B0840F1000018EB0E0B58EBAA
:102E2000000840F100008F1A4FF000013CBFC94379
:102E3000661B14BFB5EB040C00213CBFC943F61B55
:102E40004FEA17444EEA8E0E27EA04454FEA1C4724
:102E500004FB07622CEA074C05FB07F70CFB05F6A1
:102E600004FB0CFC16EB074642EB174216EB0C4634
:102E700042EB1C421BEB060658EB0202414146EABC
:102E80009E0601D5BDE80189B619524141EB010109
:102E9000A3F10103BDE801894FEA14454FEA114748
:102EA00024EA054621EA074C05FB07F406FB07F771
:102EB0000CFB06F105FB0CFC11EB074144EB17443E
:102EC0004FEA124711EB0C4144EB1C4422EA074C39
:102ED00005FB07F206FB07F70CFB06F605FB0CFCEF
:102EE00016EB074642EB174216EB0C4642EB1C452D
:102EF0006A1854F1000148BF7047B619524141EBBE
:102F00000101A3F10103704795F0000F37D04FEA9C
:102F100011424FEA144721EA024624EA074C02FB19
:102F200007F106FB07F70CFB06F402FB0CFC14EBA5
:102F3000074441EB17414FEA154714EB0C4441EBB2
:102F40001C4125EA074C02FB07F506FB07F70CFBC3
:102F500006F602FB0CFC16EB074645EB174516EB95
:102F60000C4645EB1C42121951F1000148BF704755
:102F7000B619524141EB0101A3F1010370474FEA39
:102F800014454FEA114724EA054621EA074C05FBA0
:102F900007F106FB07F70CFB06F24FF0000605FBF6
:102FA0000CFC12EB074241EB174112EB0C4251EBC8
:102FB0001C4148BF7047921841EB0101A3F1010386
:102FC0007047000005E00821024806F0A1FA03F06E
:102FD000DDFEF8E70018024010B501200549087031
:102FE000002003F05DFA30220021034804F0C1FA0A
:102FF00010BD0000040100200064024010B5202232
:103000000221054804F0D4FA012804D1202202212B
:10301000014804F0AEFA10BD006402400FB408B5D8
:1030200003A800900A490B4A128801EBC210009ACB
:103030000299FEF7DDF9002000900549054A128843
:1030400001EBC21009F00CFE01B05DF814FB0000AA
:1030500074110020C00000207047000010B5104817
:10306000008810490988884219D00F490C4A1288F3
:1030700001EBC210FEF7FEFA04460B49084A12881B
:1030800001EBC210214609F0C9FD05480088401C2B
:1030900080B2034908800A2801D10020088010BDB1
:1030A000C2000020C00000207411002010B50420D0
:1030B00005F004F80348007810B9012003F0F0F996
:1030C00010BD00000401002030B504460D4600226A
:1030D0002946204600F002F830BD0000F0B5034656
:1030E000012500241148407A01281CDC00200F4EE5
:1030F000767A0E4FB8553846467A001D40F826308D
:10310000001F467A083082553E46707A461C7E7211
:10311000044604F1300008703A2048702F2088706F
:103120000020C87000252846F0BD000098660220E7
:1031300005E00821024806F0EBF903F027FEF8E766
:103140000010024010B5024600BF4FF44873C3EBB5
:1031500003146301002005E0044C54F8224024F8D5
:103160001010401C9842F7D310BD0000F000002062
:1031700030B548B902EBC20404EB0214074D05EB6D
:10318000841424F8113008E002EBC20404EB0214AA
:10319000034D05EB841424F8113030BD000000C04D
:1031A00000B80BC010B503490348FFF78DFF034972
:1031B000087010BD2D010020180100202C010020F6
:1031C00005E08021024806F0A3F903F0DFFDF8E7EF
:1031D000000C024070B505460C46002605480088E4
:1031E00038B105484068861EA2003103284602F027
:1031F000D5FC70BDF8000020501D002070B50546BC
:103200000C4600260548008838B105484068861EEF
:10321000A2003103284602F069FD70BDF8000020CD
:10322000501D00207047000010B5002807DA0A077B
:10323000140E054A00F00F031B1FD45403E00A07C5
:10324000130E024A135410BD18ED00E000E400E034
:1032500070470000F0B52DED048B81B005460F4698
:103260001646F0EE409A002444E005EBC400D0ED91
:10327000008A6000401C05EB800090ED008AF0EEB3
:10328000680AB0EE480A02F035FEB0EE409A68EEE9
:10329000A80AB0EE600A08EE080AB5EEC00AF1EE20
:1032A00010FA04DBF1EEC00ACDED000A04E0DFED18
:1032B000140ACDED000A00BF9DED000AF4EEC09A9D
:1032C000F1EE10FA07DD9FED0E0A0E4800EB8400C8
:1032D00080ED000A0CE09FED0C0A29EE000ADFEDFC
:1032E0000B0A80EE201A074800EB840080ED001ADC
:1032F000601C84B2B442B8DB01B0BDEC048BF0BDFD
:103300000000000070BF012000003443DA0F494084
:1033100010B50346002040EAE200CC1040EA441019
:10332000DC1040EA842047F6FF74A04201D040F44C
:10333000004010BD10B5044601200749087007F091
:103340007DFF1D2805D10448007820F001000249C6
:1033500008700148007810BD1401002010B5044623
:1033600001231448007800F0010008B1032010BDCB
:1033700031B1012906D002290AD0032914D10DE068
:10338000002313E00C48C06B400A106000230DE0DE
:103390000948B0F840001080002307E00648B0F864
:1033A00040001080002301E0042300BF00BF184646
:1033B000DDE7000014010020941600202DE9F047FD
:1033C00081460C4615461E461C274FF0010809E0B1
:1033D00069024FF40072204607F01AF9074604F517
:1033E00000746D1C301EA6F10106F1D11C2F00D017
:1033F00080464046BDE8F08701460120064A10702D
:10340000064800781D2804D11046007820F00100FD
:10341000107001480078704714010020E800002077
:103420002DE9F04781460C4615461E461C274FF0F5
:10343000010809E069024FF40072204607F0F4F930
:10344000074604F500746D1C301EA6F10106F1D18B
:103450001C2F00D080464046BDE8F08770470246EA
:10346000C81C82420AD0C81E904207D0081D824262
:1034700004D0081F904201D08A4201D10120704738
:103480000020FCE710B503F075FC08F059FA10BDF8
:1034900008B52D48006840F470002B4908602B489F
:1034A000006840F001002949086028480830006899
:1034B00040F080002549083108600020009002E0BB
:1034C0000098401C00904CF2503100988842F7D38D
:1034D0001E480830006840F090001C490831086020
:1034E0000020009002E00098401C00904CF2503107
:1034F00000988842F7D315480830006820F0030090
:1035000012490831086011480068114908400F4904
:1035100008600846006820F48020086000200B49FD
:103520000831086000BF0948083000680020002802
:10353000F9D108480549091D0860002003490C31EC
:10354000086008F05FFC08BD88ED00E0003802402C
:10355000FFFFF6FE1030002410B50121244808F0CA
:1035600000FF012843D10121214808F0F7FE21483E
:103570000078012828D108211F4805F0C9FF1F48FD
:1035800001880088401C1D4A108040F28A20814238
:103590002DDB00201146088019491A4A127831F8AB
:1035A0001210194A32F8110001F0E2FB15480178B7
:1035B0000078401C134A1070232918DB00201146A4
:1035C00008700C49087012E01048008878B1082192
:1035D000094805F09DFF0D48008800EB8000400081
:1035E0000F2190FBF1F083B2184601F0C1FB10BD32
:1035F000001000400A00002000040240A00000204B
:1036000058000020A2000020100000200E00002022
:1036100010B526480068401C24490860062801D1DE
:103620000020086000220821214805F073FF0022D5
:103630008021204805F06EFF002208211E4805F079
:1036400069FF002220211D4805F064FF174800682B
:10365000062828D2DFE800F003090F151B210122FC
:103660000821134805F056FF1DE001228021114872
:1036700005F050FF17E0012208210F4805F04AFF2E
:1036800011E0012220210D4805F044FF0BE001224A
:103690000821094805F03EFF05E001228021054888
:1036A00005F038FF00BF00BF10BD0000B0000020D3
:1036B00000100240000C02400018024000000240CE
:1036C0001CB53D48007820B101283AD0022870D1BD
:1036D00065E047F6FF710120FFF734FD48F21F0057
:1036E00047F6FF7135A31E22CDE900104FF4A071FB
:1036F000012001F00BFD4FF6E0704FF4B4714FF470
:103700001673FA22CDE90010C821002001F054FE02
:103710004BF6404047F6FF712BA34FF49172CDE971
:1037200000104FF49871012001F0F0FC01202249B3
:103730000870294908700020284908802849087025
:1037400037E025480078F0B902201B4908704BF695
:10375000404047F6FF7123A34FF49172CDE900106A
:103760004FF49871012001F0D1FC47F6FF704FF43F
:10377000B4714FF41673FA22CDE90010C82100206D
:1037800001F01AFE0AE006F0BDFE012806D1002075
:1037900018490870184908700F49087009E006F0C8
:1037A000B1FE012804D100201349087011490870A6
:1037B00000BF00BF1CBD000009000020BBF9B4A180
:1037C000B9A6C4DCD2BB0000D5FDD4DAB2A5B7C51A
:1037D000D2F4C0D6000000000A000020A0000020A3
:1037E000A2000020B2A5B7C5D2F4C0D6CDEAB3C9B5
:1037F00000000000070000200600002010B52DED9D
:10380000028B82B0F048007820B101287ED00228D7
:103810007DD146E10020ED490870ED49087047F67A
:10382000FF710120FFF78EFC48F21F0047F6FF7181
:10383000E8A31E22CDE900104FF4A071012001F091
:1038400065FCE7A35A224FF49B71002001F064FE4F
:1038500048F21F0047F6FF71E5A36422CDE900108E
:103860000521012001F052FC48F21F0047F6FF71CC
:10387000E1A39622CDE900100521012001F046FCCC
:103880004FF6FF7040F2DB114FF49673FA22CDE948
:1038900000100521002001F08FFD4FF4784047F61D
:1038A000FF71D8A34FF49672CDE900101E210120BC
:1038B00001F02CFC4FF4784047F6FF71D4A34FF48D
:1038C000AF72CDE900105821012001F01FFC4FF428
:1038D000784047F6FF71D0A34FF4E172CDE90010B4
:1038E00040F23911012001F0EBFC4FF4784047F62B
:1038F000FF71CAA34FF4E172CDE900104FF43971A2
:10390000012001F0DDFC0120AF4901E005E056E1B6
:1039100008700020C349087051E1C24800780028AF
:103920007DD0C14805F080F94FF4FA7005F0E4F954
:10393000044605F00BFABD48A449097800EB810064
:1039400080ED000AB84807F09BFFB8489F4A1278FC
:1039500000EB820090ED000ABDEEC00A10EE101AD6
:10396000B3A001F0CFF9044648F21F0047F6FF71FB
:1039700023466422CDE900100521012001F0C6FB99
:10398000AA489249097800EB810090ED000ADFED2A
:10399000AC0AB4EE600AF1EE10FA00D10FE18B48E8
:1039A0000078401CC0B289490870032841D1032126
:1039B0009E4805F0D9F9A3488549097800EB8100B4
:1039C00080ED000A00208149087081480078401C81
:1039D000C0B27F49087003282BD102207A490870B1
:1039E0004FF4784047F6FF7197A39622CDE9001077
:1039F0000521012001F08AFB4FF4784047F6FF7162
:103A000094A34FF49672CDE900101E21012001F01D
:103A10007DFB4FF4784047F6FF718EA300E036E05F
:103A20004FF4AF72CDE900105821012001F06EFB78
:103A3000C5E067480078012202EB400188A001F050
:103A400061F904464FF4784047F6FF7123464FF47E
:103A50009672CDE900101E21012001F057FB5B4852
:103A60000178491C82A001F04DF904464FF47840DA
:103A700047F6FF7123464FF4AF72CDE9001058218D
:103A8000012001F043FB00206649087008E006F0C1
:103A900039FD012804D10020774908707749087062
:103AA0008DE06048007800287FD05F4805F0BCF8C2
:103AB0004FF4FA7005F020F9044605F047F9B0EE2E
:103AC000408A594807F0DCFEBDEEC80A10EE101A15
:103AD00057A001F017F9044648F21F0047F6FF719E
:103AE00023466422CDE900100521012001F00EFBE0
:103AF0009FED530AB4EEC08AF1EE10FA00D85EE0F2
:103B000000203249087035E04E49304A127801EB06
:103B1000820191ED000ABDEEC00A10EE100ABDEE62
:103B2000C80A10EE101AFFF79AFCF0B12748007887
:103B300008B9012006E025480078012801D10320BA
:103B400000E0052001464EA001F0DCF804464FF4E9
:103B5000784047F6FF7123464FF4AF72CDE900106D
:103B60005821012001F0D2FA08E018480078401CE2
:103B700016490870154800780328C5DB00BF1348B4
:103B8000007803280CD14FF4784047F6FF713EA32C
:103B90004FF4AF72CDE900105821012001F0B6FAC0
:103BA00000202049087009E0FFE706F0ABFC01287F
:103BB00004D10020304908703049087000BF00BFB0
:103BC00002B0BDEC028B10BD09000020A600002051
:103BD000A7000020BBF9B4A1B9A6C4DCB6FE000062
:103BE00062785F6261636B312E626D70000000006D
:103BF000C6B5C2CA3A300000D1A7CFB0C4A3CABD6F
:103C00000000000031BAC5B1ADD7D3D1A7CFB00005
:103C1000B5DA31B4CE00000038485A0033373530B9
:103C2000485A000004010020703F02205401002087
:103C3000C6B5C2CA3A256420485A202000000000B8
:103C40000040434434010020CAB6B1F0C4A3CABD49
:103C50000000000020202020202020202020200004
:103C60002564BAC5B1ADD7D3D1A7CFB0000000004D
:103C7000B5DA2564B4CE000007000020060000205D
:103C80002564BAC5B1AD000020202020200000002E
:103C900010B52DED028B82B0F948007820B10128D3
:103CA0007ED002287DD14EE10020F6490870F64909
:103CB000087047F6FF710120FFF744FA48F21F0031
:103CC00047F6FF71F1A31E22CDE900104FF4A07159
:103CD000012001F01BFAF0A35A224FF49B7100203F
:103CE00001F01AFC48F21F0047F6FF71EEA36422B0
:103CF000CDE900100521012001F008FA48F21F006B
:103D000047F6FF71EAA39622CDE9001005210120B4
:103D100001F0FCF94FF6FF7040F2DB114FF496739F
:103D2000FA22CDE900100521002001F045FB4FF4F7
:103D3000784047F6FF71E1A34FF49672CDE9001089
:103D40001E21012001F0E2F94FF4784047F6FF719F
:103D5000DDA34FF4AF72CDE900105821012001F02E
:103D6000D5F94FF4784047F6FF71D9A34FF4E172CB
:103D7000CDE9001040F23911012001F0A1FA4FF411
:103D8000784047F6FF71D3A34FF4E172CDE90010FC
:103D90004FF43971012001F093FA0120B84901E094
:103DA00005E068E108700020CC49087063E1CB4869
:103DB000007800287DD0CA4804F036FF4FF4FA702E
:103DC00004F09AFF044604F0C1FFC648AD490978E3
:103DD00000EB810080ED000AC248AA4A127800EB8D
:103DE000820090ED000ABDEEC00A10EE101ABEA0CF
:103DF00000F088FF044648F21F0047F6FF71234693
:103E00006422CDE900100521012001F07FF9B448BA
:103E100007F036FDB3489B49097800EB810090ED2F
:103E2000000ADFEDB50AB4EE600AF1EE10FA00D137
:103E300021E194480078401CC0B2924908700328E0
:103E400041D10321A74804F08FFFAC488E4909787F
:103E500000EB810080ED000A00208A4908708A4842
:103E60000078401CC0B28849087003282BD102207A
:103E7000834908704FF4784047F6FF71A0A396225B
:103E8000CDE900100521012001F040F94FF4784000
:103E900047F6FF719DA34FF49672CDE900101E21E5
:103EA000012001F033F94FF4784047F6FF7197A3F2
:103EB00000E03EE04FF4AF72CDE900105821012040
:103EC00001F024F9D7E07048007808B9022006E034
:103ED0006D480078012801D1042000E0052001464A
:103EE0008DA000F00FFF04464FF4784047F6FF71B5
:103EF00023464FF49672CDE900101E21012001F0F7
:103F000005F960480178491C87A000F0FBFE0446D3
:103F10004FF4784047F6FF7123464FF4AF72CDE976
:103F200000105821012001F0F1F800206B490870C1
:103F300008E006F0E7FA012804D100207C49087067
:103F40007C49087097E06548007800287ED0644876
:103F500004F06AFE4FF4FA7004F0CEFE044604F05A
:103F6000F5FEB0EE408ABDEEC80A10EE101A5EA053
:103F700000F0C8FE044648F21F0047F6FF712346D2
:103F80006422CDE900100521012001F0BFF854485A
:103F900007F076FC9FED580AB4EEC08AF1EE10FAF5
:103FA00000D868E00020374908703EE05349354AA0
:103FB000127801EB820191ED000ABDEEC00A10EE0D
:103FC000100ABDEEC80A10EE101AFFF748FA38B30F
:103FD0002C48007808B9022006E02A480078012819
:103FE00001D1042000E00520014653A000F08AFE24
:103FF00004464FF4784047F6FF7123464FF4AF7202
:10400000CDE900105821012001F080F8BCEEC80A6B
:1040100010EE101A88B24FF4FA7105F075FE08E040
:1040200018480078401C1749087016480078032883
:10403000BCDB00BF1348007803280ED14FF4784052
:1040400047F6FF713EA34FF4AF7200E009E0CDE9FF
:1040500000105821012001F059F800201F49087074
:1040600008E006F04FFA012804D10020304908701A
:104070003049087000BF00BF02B0BDEC028B10BD1C
:1040800009000020A8000020A9000020BBF9B4A16D
:10409000B9A6C4DCC8FD000062785F6261636B3161
:1040A0002E626D7000000000C6B5C2CA3A30000032
:1040B000D1A7CFB0C4A3CABD0000000032BAC5B1B9
:1040C000ADD7D3D1A7CFB000B5DA31B4CE00000060
:1040D00038485A0033373530485A00000401002070
:1040E000703F022054010020C6B5C2CA3A256420A0
:1040F000485A2020000000000040434434010020C2
:10410000CAB6B1F0C4A3CABD000000002020202020
:1041100020202020202020002564BAC5B1ADD7D3AF
:10412000D1A7CFB000000000B5DA2564B4CE0000FE
:1041300007000020060000202564BAC5B1AD0000CC
:10414000202020202000000010B52DED028B86B02D
:10415000F34A07CA03AB07C3F248007820B101282D
:104160007ED002287DD148E10020EF490870EF4958
:10417000087047F6FF710120FEF7E4FF48F21F00C8
:1041800047F6FF71EAA31E22CDE900104FF4A0719B
:10419000012000F0BBFFE9A35A224FF49B710020DD
:1041A00001F0BAF948F21F0047F6FF71E7A3642255
:1041B000CDE900100521012000F0A8FF48F21F0002
:1041C00047F6FF71E3A39622CDE9001005210120F7
:1041D00000F09CFF4FF6FF7040F2DB114FF4967336
:1041E000FA22CDE900100521002001F0E5F84FF496
:1041F000784047F6FF71DAA34FF49672CDE90010CC
:104200001E21012000F082FF4FF4784047F6FF7135
:10421000D6A34FF4AF72CDE900105821012000F071
:1042200075FF4FF4784047F6FF71D2A34FF4E17267
:10423000CDE9001040F23911012001F041F84FF4AE
:10424000784047F6FF71CCA34FF4E172CDE900103E
:104250004FF43971012001F033F80120B14901E038
:1042600005E057E108700020C549087052E1C448D4
:10427000007800287DD0C34804F0D6FC4FF4FA70D3
:1042800004F03AFD044604F061FDBF48A6490978F0
:1042900000EB810080ED000ABA4807F0F1FABA4855
:1042A000A14A127800EB820090ED000ABDEEC00A30
:1042B00010EE101AB5A000F025FD044648F21F00CC
:1042C00047F6FF7123466422CDE900100521012045
:1042D00000F01CFFAC489449097800EB810090ED98
:1042E000000ADFEDAE0AB4EE600AF1EE10FA00D17A
:1042F00010E18D480078401CC0B28B49087003283B
:1043000045D10321A04804F02FFDA548874909782D
:1043100000EB810080ED000A00208349087083488B
:104320000078401CC0B28149087005282FD10220B6
:104330007C4908704FF4784047F6FF7199A39622A4
:10434000CDE900100521012000F0E0FE4FF4784097
:1043500047F6FF7196A34FF49672CDE900101E2127
:10436000012000F0D3FE4FF4784047F6FF7190A390
:1043700000E038E04FF4AF72CDE900105821012081
:1043800000F0C4FE05218648FEF738FFC2E067480A
:104390000178491C89A000F0B5FC04464FF4784030
:1043A00047F6FF7123464FF49672CDE900101E21A7
:1043B000012000F0ABFE5C480178491C83A000F0AE
:1043C000A1FC04464FF4784047F6FF7123464FF4B2
:1043D000AF72CDE900105821012000F097FE0020B7
:1043E0006749087008E006F08DF8012804D1002024
:1043F00078490870784908708CE061480078002896
:104400007ED0604804F010FC4FF4FA7004F074FCA5
:10441000044604F09BFCB0EE408A5A4807F030FA9C
:10442000BDEEC80A10EE101A58A000F06BFC04464E
:1044300048F21F0047F6FF7123466422CDE90010C1
:104440000521012000F062FE9FED540AB4EEC08AFF
:10445000F1EE10FA00D85DE000203349087034E036
:104460004F49314A127801EB820191ED000ABDEE0D
:10447000C00A10EE100ABDEEC80A10EE101AFEF7C0
:10448000EEFFE8B128480178491C54A000F03AFC3E
:1044900004464FF4784047F6FF7123464FF4AF725D
:1044A000CDE900105821012000F030FE03A91E4A7A
:1044B000127831F812004FF4FA7105F025FC08E08B
:1044C00019480078401C18490870174800780528DA
:1044D000C6DB00BF1448007805280CD14FF47840A3
:1044E00047F6FF713FA34FF4AF72CDE9001058219A
:1044F000012000F00BFE00202149087009E0FFE7D1
:1045000006F000F8012804D1002032490870324931
:10451000087000BF00BF06B0BDEC028B10BD0000EC
:1045200078DE000809000020AA000020AB0000206F
:10453000CDD8D5B9B9A6C4DCD2BB000062785F6221
:1045400061636B312E626D7000000000C6B5C2CA97
:104550003A300000D1A7CFB0C4A3CABD000000000C
:1045600031BAC5B1ADD7D3D1A7CFB000B5DA31B428
:10457000CE00000038485A0033373530485A000022
:1045800004010020703F022054010020C6B5C2CAB9
:104590003A256420485A202000000000004043448F
:1045A00034010020CAB6B1F0C4A3CABD00000000A7
:1045B0002020202020202020202020002564BAC593
:1045C000B1ADD7D3D1A7CFB000000000B5DA2564D4
:1045D000B4CE000007000020060000202564BAC504
:1045E000B1AD0000202020202000000010B52DEDEE
:1045F000028B82B07D48007810B101286BD16BE04E
:1046000000207B49087047F6FF710120FEF79AFDF4
:1046100048F21F0047F6FF7176A31E22CDE9001075
:104620004FF4A071012000F071FD75A35A224FF4E0
:104630009B71002000F070FF48F21F0047F6FF71E9
:1046400073A36422CDE900100521012000F05EFD76
:1046500048F21F0047F6FF716FA39622CDE90010C4
:104660000521012000F052FD4FF6FF7040F2DB11F2
:104670004FF49673FA22CDE900100521002000F0D6
:104680009BFE4FF4784047F6FF7166A34FF4E1724A
:10469000CDE9001040F23911012000F011FE4FF475
:1046A000784047F6FF7160A34FF4E172CDE9001046
:1046B0004FF43971012000F003FE5D4890ED040ACB
:1046C000B5EEC00AF1EE10FA02D10521FEF782FD27
:1046D00000205849087083E056480078002875D0BB
:1046E000554804F0A1FA4FF4FA7004F005FB0446B3
:1046F00004F02CFBB0EE408A4F4807F0C1F8BDEE45
:10470000C80A10EE101A4DA000F0FCFA044648F258
:104710001F0047F6FF7123466422CDE900100521F2
:10472000012000F0F3FC9FED490AB4EEC08AF1EEDF
:1047300010FA00D854E000202D4908702BE03C49C5
:104740002B4A127801EB820191ED000ABDEEC00AFE
:1047500010EE100ABDEEC80A10EE101AFEF77FFE2A
:10476000A0B123480178491C39A000F0CBFA0446D7
:104770004FF4784047F6FF7123464FF4AF72CDE90E
:1047800000105821012000F0C1FC08E01848007812
:10479000401C17490870164800780528CFDB00BF79
:1047A0001348007805280CD14FF4784047F6FF7184
:1047B00029A34FF4AF72CDE900105821012000F079
:1047C000A5FC00201B49087009E0FFE705F09AFEF0
:1047D000012804D10020224908702249087000BF36
:1047E00000BF02B0BDEC028B10BD0000090000202C
:1047F000AC000020CDD8D5B9B9A6C4DCB6FE000007
:1048000062785F6261636B312E626D700000000040
:10481000C6B5C2CA3A300000CAB6B1F0C4A3CABD18
:104820000000000038485A0033373530485A00003D
:104830003401002004010020703F0220C6B5C2CA26
:104840003A256420485A20200000000000404344DC
:104850002564BAC5B1AD000030BAC5B1AD000000E5
:10486000070000200600002010B52DED028B82B05D
:104870004F48007810B1012860D160E047F6FF7121
:104880000120FEF75FFC48F21F0047F6FF7149A3C5
:104890000A22CDE900105101012000F037FC48A3A5
:1048A0005A224FF49B71002000F036FE48F21F00A0
:1048B00047F6FF7146A36422CDE9001005210120CF
:1048C00000F024FC4FF4784047F6FF7142A34FF408
:1048D000AF72CDE900103721012000F017FC4FF630
:1048E000FF7040F2DB114FF49673FA22CDE900100D
:1048F0000521002000F060FD4FF4784047F6FF717D
:1049000039A34FF4E172CDE9001040F239110120D2
:1049100000F0D6FC4FF4784047F6FF7133A34FF414
:10492000E172CDE900104FF43971012000F0C8FCAC
:1049300001201F49087000202E49087033E02D48DF
:10494000007830B300202B4908702B4804F06CF934
:104950004FF4FA7004F0D0F9044604F0F7F9B0EE21
:10496000408ABDEEC80A10EE101A24A000F0CAF961
:10497000044648F21F0047F6FF7123466422CDE942
:1049800000100521012000F0C1FB1B4806F078FF54
:1049900008E005F0B7FD012804D100201B4908708C
:1049A0001B49087000BF00BF02B0BDEC028B10BDF8
:1049B00009000020CDD8D5B9B9A6C4DCC8FD0000D7
:1049C00062785F6261636B312E626D70000000007F
:1049D000C6B5C2CA3A300000BCF2D2D7464654B778
:1049E000D6CEF6D2C700000038485A0033373530EB
:1049F000485A000004010020703F0220C6B5C2CA18
:104A00003A256420485A20200000000007000020BA
:104A1000060000201CB56D48007810B1012837D180
:104A200037E000206A49087047F6FF710120FEF761
:104A300089FB47F6FF710020FEF784FB48F21F0058
:104A400047F6FF7163A31E22CDE9001078210120F3
:104A500000F05CFB48F21F0047F6FF7166A3C82216
:104A6000CDE900104FF4A871012000F04FFB48F28F
:104A70001F0047F6FF7163A34FF4A072CDE9001049
:104A80004FF4A871012000F041FB01204F4908704C
:104A90009AE005F037FD012804D0022806D003284B
:104AA00018D10DE001205A49087013E059480078E8
:104AB000052804DA57480078401C5649087009E078
:104AC00054480078002804DD52480078401E5149BF
:104AD000087000BF00BF4BF640404E49097811B93D
:104AE0004FF6E07101E04FF6FF714BA3F022CDE9E4
:104AF0000010C821012000F009FB4BF64040454959
:104B00000978012902D14FF6E07101E04FF6FF71FB
:104B100043A3F022CDE900104FF4B071012000F062
:104B2000F5FA4BF640403B490978022902D14FF68D
:104B3000E07101E04FF6FF713BA3F022CDE90010D8
:104B40004FF4FC71012000F0E1FA4BF6404031498E
:104B50000978032902D14FF6E07101E04FF6FF71A9
:104B60002DA34FF4B472CDE90010C821012000F04C
:104B7000CDFA4BF6404027490978042902D14FF677
:104B8000E07101E04FF6FF7125A34FF4B472CDE957
:104B900000104FF4B071012000F0B8FA4BF640401D
:104BA0001C490978052902D14FF6E07101E04FF662
:104BB000FF711DA34FF4B472CDE900104FF4FC71E6
:104BC000012000F0A3FA00BF00BF1CBD07000020B9
:104BD0000900002032303233C4EAC8ABB9FAB4F36A
:104BE000D1A7C9FAB5E7D7D3C9E8BCC6BEBAC8FCD5
:104BF000204B20CCE2200000BBF9B4A1B9A6C4DC54
:104C000000000000CDD8D5B9B9A6C4DC0000000072
:104C10000600002008000020B9A6C4DCD2BB0000BA
:104C2000B9A6C4DCB6FE0000B9A6C4DCC8FD00000D
:104C300010B52549254807F0ADFF01280BD12348C1
:104C400007F094FEC1B2224802880088401C204B25
:104C500018802048815420491C4807F09BFF0128F8
:104C60000AD11A4807F082FE00201A49184A128811
:104C700088540120194908701949144807F08AFF1F
:104C800000B31749114807F078FF16480088401C08
:104C900080B2144908801449098888420BDA134805
:104CA0000068017811480068401C104B18600748E4
:104CB00007F061FE06E000200A4908800A490880E2
:104CC000FEF7CCF910BD00000503050000100140FF
:104CD000B40000207401002004030400B60000208A
:104CE00006030600BE000020BC000020B800002023
:104CF00005E02021024804F00BFC02F047F8F8E739
:104D0000000002400FB408B503A800900548009ABF
:104D10000299FCF76DFB00200090024801B05DF89D
:104D200014FB00006D3D00200748006840F08070D3
:104D3000054908600020054948600846006840F0C1
:104D40000100086070470000FCED00E0001000E08A
:104D50000148406870470000001000E002469142A0
:104D600004D2C2F1FF330B44581C00E0881A70478C
:104D70000249B1FBF0F1024AD162704740420F0094
:104D80000010004070B505460E4614460548007EEA
:104D900008B9002070BDA2B201233146284600F0B8
:104DA0004FFDF7E7501D002070B505460E4614462E
:104DB0000548807E08B9002070BDA2B203233146A9
:104DC000284600F03DFDF7E7501D00202DE9F04397
:104DD0002DED088BA3B04FF0050900BF06F02EFAA9
:104DE00004461D2C05D0A9F1010080B2B0F10009E4
:104DF000F4D11D2C03D14CA0FEF710F908E050A00F
:104E0000FEF70CF9204623B0BDEC088BBDE8F0831B
:104E1000514805F061FF5049C86B08F0BEFA41ECFB
:104E20001B0B9FED4E0B53EC102B08F0C9FA41EC15
:104E30001A0B9FED4C0B53EC102B08F0E3F841ECF0
:104E4000190B9FED480B53EC102B08F0DBF841ECED
:104E5000180B07F075FF0746384608F003FE41ECD3
:104E6000180B53EC182B41A0FEF7D8F8FEF79AF96F
:104E700001224449444803F0DFFA0546002D4BD196
:104E8000032242A1444803F009FB8046B8F1000F19
:104E90001FD007223DA1404803F000FB8046B8F137
:104EA000000F38D13DA0FEF7B9F8052001F058FFFA
:104EB00022AB122241A1384803F049FD28B944A091
:104EC000FEF7ACF8052001F04BFF334803F0FCF887
:104ED00021E03148D0F80C62314645A0FEF79EF83B
:104EE000052001F03DFF802E11D22B4801AB02A915
:104EF000D0F80C2203F0C4FB40B9002002A9885569
:104F000041A0FEF78BF80A2001F02AFF00BF2248DB
:104F100003F0DAF800BF05E040A0FEF77FF80520B7
:104F200001F01EFF1D206EE70D0A436172642069C7
:104F30006E69742073756363657373210D0A0000D5
:104F40000D0A4361726420696E6974206661696C40
:104F50006564210D0A000000941600200000000086
:104F60000000F03F00000000000090405446206325
:104F70006172642073697A653A252E3166204D0D81
:104F80000A0000002D010020A4660220303A2F7490
:104F90006573742E74787400D46802207465737419
:104FA0002E7478742066696C65206372656174651F
:104FB000206F6B2025640D0A00000000534420631D
:104FC000617264207772697465207465737400007F
:104FD000746573742E7478742066696C65207772BA
:104FE000697465206F6B2025640D0A0D0A000000AE
:104FF000746573742E7478742066696C65207369A7
:105000007A652025640D0A00746573742E747874B3
:105010003A2025730D0A0D0A000000000D0A5344C2
:105020002063617264206D6F756E7420455252204A
:105030000D0A0D0A0000000070B505460C4604B9C3
:1050400070BD06E0002000F00DFF05F8010B601EAA
:1050500084B2002CF6DC00BFF2E770B505460C46C2
:1050600004B970BD05E015F8010B00F0FBFE601EF1
:1050700084B2002CF7DC00BFF3E72DE9F04F824645
:105080000D4690461F46DDF824B04FF0000934E08D
:10509000002429E017F814004FEA0029012000EB52
:1050A0004400385C40EA090900261AE0C6F10F0105
:1050B0000120884000EA090048B108EB040082B2F0
:1050C000A81981B250460B9BFEF752F808E008EB96
:1050D000040082B2A81981B250460A9BFEF748F834
:1050E000761C0F2EE2DB641C102CD3DB103520372E
:1050F000B5F5447F01DDBDE8F08FBBF10000ABF1F9
:1051000001011FFA81FBC3DC00BFF4E72DE9FF4F6B
:1051100085B00E4692461F463846FCF7ABFAC0B241
:105120000390002500BF6BE0785D802840DA785D51
:105130002038364901EB801B002433E01BF81400B3
:1051400000020490012000EB44001BF800000499C9
:10515000084304904FF000081FE0C8F10F01012040
:1051600088400499084050B10AEB040082B206EB73
:10517000080081B2139B0598FDF7FAFF09E00AEBDE
:10518000040082B206EB080081B2129B0598FDF77D
:10519000EFFF08F101001FFA80F8B8F1100FDCDB17
:1051A000601C84B2202CC9DB1036681CC5B221E01B
:1051B000791914221648FFF7F7FD8146B9F1000F5F
:1051C0000ED0C9F3CF12DDE91210114BCDE9002149
:1051D000029052463146059800F01CF806EB9906FD
:1051E000B9F1000F03D005EB9910C5B201E0A81C7E
:1051F000C5B200BFB6F5447F02DD09B0BDE8F08F4F
:105200000398854290DB00BFF7E7000012F6000824
:10521000EC1600202DE9F04F82460E4691461D46C1
:10522000DDF824B04FF0000840E0002435E015F828
:1052300024004FEA0068012000EB8400285C48EA63
:105240000048022000EB8400285C48EA0028032084
:1052500000EB8400285C40EA080800271AE0C7F148
:105260001F010120884000EA080048B109EB040052
:1052700082B2F01981B250460B9BFDF779FF08E02E
:1052800009EB040082B2F01981B250460A9BFDF787
:105290006FFF7F1C202FE2DB641C202CC7DB203635
:1052A0008035B6F5407F01DDBDE8F08FBBF1000031
:1052B000ABF101011FFA81FBB7DC00BFF4E700008E
:1052C0002DE9FF4F87B00D4692461E46DDF850B0DF
:1052D0003046FCF7CFF9C0B20690002400BF61E071
:1052E000305D802837DA305D2038314901EB00101D
:1052F00005904FF0000827E0059810F8080004908A
:1053000000271BE0C7F107010120884004990840ED
:1053100048B10AEB080082B2E81981B2159B0798E0
:10532000FDF726FF08E00AEB080082B2E81981B217
:105330005B460798FDF71CFF781C87B2082FE1DB5E
:1053400008F101001FFA80F8B8F1100FD4DB08351E
:10535000601CC4B220E0311914221648FFF712FD78
:105360008146B9F1000F0DD0C9F34F111598114BBB
:105370005246CDE9001B029029460798FFF77DFEB3
:1053800005EB5905B9F1000F03D004EB1910C4B2B5
:1053900001E0A01CC4B200BFB5F5467F02DD0BB032
:1053A000BDE8F08F069884429ADB00BFF7E7000063
:1053B00082DE0008EC1600202DE9F04780460E46FC
:1053C00014461F46DDE9089A00250DE0354607E042
:1053D0005346224629464046FDF7CAFE681C85B260
:1053E000BD42F5DD601C84B24C45EFDDBDE8F087C1
:1053F0002DE9FF4F89B00E4617469946DDE916ABF9
:105400000024002500200890079080460690059013
:1054100004900390029057450ED10AF1010080B22A
:10542000CDE9000B781E82B24B4631460998FFF752
:10543000C3FF0DB0BDE8F08F4E450BD109F101005F
:1054400083B2701E81B23A46CDE900AB0998FFF7EE
:10545000B3FFEEE7A9EB060004B2AAEB070005B222
:10546000002C02DD0120089008E014B9002008900B
:1054700004E04FF0FF300890604204B2002D02DDDE
:105480000120079008E015B90020079004E04FF0D4
:10549000FF300790684205B2AC4202DD1FFA84F883
:1054A00001E01FFA85F805960497002006902BE08E
:1054B0005B46DDE904210998FDF75AFE0398204474
:1054C00080B203900398404509DD0398A0EB0800E3
:1054D00080B2039008990598084480B2059002981C
:1054E000284480B202900298404509DD0298A0EB62
:1054F000080080B2029007990498084480B2049092
:105500000698401C80B2069008F101010698884276
:10551000CEDD00BF8DE700002DE9F84F81460F4634
:105520001546984650A0FDF779FD514800780028AF
:105530007ED1012241464F4802F0B0FF8246BAF1C7
:10554000000F76D16B4636224B494A4803F098F853
:1055500000287ED14848801E4146426847A0FDF79A
:105560005DFD4548801EC1684AA0FDF757FD4248D1
:10557000801E41694BA0FDF751FD3F48801E8169A7
:1055800048A0FDF74BFD3C48801EC18B49A0FDF7AC
:1055900045FD3948801E40693844B0F5487F06D83B
:1055A0003548801E80692844B0F5F07F05D9314820
:1055B00002F08AFD0120BDE8F88F00262E48801EEB
:1055C000008B401E284485B22B48801EC1682948A4
:1055D00002F091FD2848801EC08B182838D135E094
:1055E0006B464FF496723749224803F049F868BB7E
:1055F0000098032829D3002423E0DFF8C8C0A31CA7
:105600001CF80320631C1CF803106346185DFDF7AB
:105610007FFE8346B81981B25B462A464846FDF7AD
:10562000A7FD701C86B21448801E4069B04202E09B
:1056300018E012E00DE002D80026681E85B2E01CDA
:1056400084B20098844201D2D7E700E0C8E700BFE7
:1056500000BF084802F038FD03E041461AA0FDF7FC
:10566000DDFC00BF0020A6E70D0A0D0A00000000C7
:1056700031010020D4680220EE1B00202573206633
:10568000696C65206F70656E2073697A652025648A
:105690000D0A00006F6666736574202025640D0A8C
:1056A00000000000706963207769647468202564D5
:1056B0000D0A000070696320636F756E74202564A5
:1056C0000D0A0000241C00202573206F70656E20D9
:1056D0006661696C0D0A0000F7B582B000271C49AD
:1056E0000398496944182103042201A800F056FADE
:1056F0000198B0F1C86F01D8019810B9012005B028
:10570000F0BD0198401F012101EB1036651C09E036
:1057100029030122684600F041FA9DF80000384450
:10572000C7B26D1C3019A842F2D84FF480520198CC
:1057300002FB0400011D0122684600F02FFA9DF8CB
:105740000000B84201D10020D9E70120D7E70000CE
:10575000501D002070B5002451E004EB44002A499C
:1057600001EB800393E80700FFF7B6FFB0B904EB45
:105770004400254A52F8201024A0FDF74FFC14B92C
:10578000012025490876012C02D1012022494876C2
:10579000022C32D10120204988762EE01F48007863
:1057A0001D2800D070BD01221D491E4802F044FE94
:1057B000054625B129461CA0FDF730FC1CE004EB92
:1057C0004400114901EB800393E8070000F080F8E2
:1057D00006466EB914B901200F490876012C02D192
:1057E00001200D494876022C02D101200A49887611
:1057F0004FF4FA7001F0B4FA00BF601C84B2032CBD
:10580000ABD300BFCEE70000940D010825732065DF
:10581000786973740D0A0000501D0020E800002014
:105820002D010020A466022054462063617264208A
:105830006D6F756E74206572726F720D0A000000D4
:105840002DE9F04707460D4616461C464FF0000866
:105850000FB105B116B90020BDE8F087012C05D1C4
:1058600020241A484069042101EB0039022C06D19A
:105870004824164840694730042101EB0039032CC5
:1058800007D180241148406900F20B10042101EB7C
:10589000003914E06878A1382978A1395E2212FB1A
:1058A000010000FB04FA09EB0A012246384600F029
:1058B00075F9A0442744AD1C701E86B200BF28783D
:1058C000802801DD002EE5DC4046C5E7501D0020A4
:1058D0002DE9F74388B000240025A14656490998D0
:1058E0004969471855A101A8089AFBF793FD0122C1
:1058F00001A9544802F0D2FD06463EB152A00899D3
:10590000FDF78CFB01200BB0BDE8F0834D48D0F8CB
:105910000C2253A00899FDF781FB56A00899FDF7CA
:105920007DFB3C464748D0F80C025749086007AB5E
:1059300040F6FC72091D434802F0A2FE0646079895
:10594000001D079073E00798002838D0BC4203D9A7
:105950004D4800782844C5B20798B0F5805F08D15B
:105960002046641C01034848079A00F0BFF98046AE
:105970000CE00799481C0790434845542046641C96
:1059800001034148079A00F0B1F98046B8F1000FD1
:1059900004D02C4802F098FB0120B4E709F1010083
:1059A00081461421B0FBF1F201FB120018B137A0BF
:1059B000FDF734FB33E036A0FDF730FB2FE0214844
:1059C000B0F80C02001FC0F30B00A0B90799481CE7
:1059D00007902D4845542046641C01032A48079A25
:1059E00000F084F98046B8F1000F04D0154802F0A9
:1059F0006BFB012087E708A807C8FFF76DFE48B9D1
:105A0000012001F0ADF90F48D0F80C2221A008992F
:105A1000FDF704FB0B4802F057FB002073E707ABD0
:105A20004FF480521849074802F02AFE0646002E1D
:105A300089D0012067E70000501D0020303A2F2553
:105A400073000000D4680220544620436172642031
:105A50002573204E4F54204F50454E0D0A00000034
:105A60002573204F70656E2073697A653A2025642E
:105A70000D0A000053746172742077726974652096
:105A800025730D0A000000006C2D00202E00000080
:105A90000D0A2E000D0A7772697465202573206641
:105AA000696E6973680D0A0010B5314800880028D6
:105AB0005BD100F09DF8044600F09AF804461C21E2
:105AC0002C48FBF73BFEA4F56F40143830B1012899
:105AD0000DD0022814D0032824D11AE04EF61470F9
